:020000040800F2
:10000000680500200101000899110008D50D0008BD
:1000100095110008110900084F18000800000000A1
:100020000000000000000000000000003D13000878
:10003000DD0A0008000000000D120008511400083D
:100040001B0100081B0100081B0100081B01000820
:100050001B0100081B0100081B0100081B01000810
:100060001B0100081B0100081B0100081B01000800
:100070001B0100081B0100081B0100081B010008F0
:100080001B0100081B0100081B0100081B010008E0
:100090001B0100081B0100081B0100081B010008D0
:1000A0001B0100081B0100081B0100081B010008C0
:1000B0001B0100081B0100081B0100081B010008B0
:1000C0001B0100081B0100081B0100081B010008A0
:1000D0001B010008B51400081B0100081B010008E3
:1000E0001B0100081B0100081B010008DFF80CD0F1
:1000F00000F0AAFA004800476119000868050020CE
:100100000648804706480047FEE7FEE7FEE7FEE7B1
:10011000FEE7FEE7FEE7FEE7FEE7FEE75514000810
:10012000ED000008F0B480EA0102D40F4200B2EB07
:10013000410F02D20246084611464A0042D0C30D82
:10014000DDB2C1F3C752AD1A202D35DAC1F3160165
:1001500041F4000204B15242C5F1200602FA06F150
:100160002A411044B3EBD05F23D0C4B1012DA0EBE2
:10017000C35009DCF0BC4FF0004202EAC352DBB2CC
:1001800000F5000000F0D4B9400000F1807000EBF1
:10019000C350A0F1807040EAD170490009E04908DD
:1001A00041EAC071A0EBC35000F50000400800EB2D
:1001B000C350F0BC00F0B3B96142012202EB41012F
:1001C000001BF6E7F0BC704781F00041AAE780F021
:1001D0000040A7E72DE9FE4F804681EA0300C00FEB
:1001E0000C46009021F0004123F00045B8EB0200DE
:1001F000A94105D24046214690461C460B46024680
:1002000023F00040104347D0270DC7F30A00C3F383
:100210000A510290401A019040286BDAC3F3130090
:1002200040F4801B0098924620B10023D2EB030AD1
:1002300063EB0B0B01985946C0F14002504600F0A9
:100240003DF906460D4650465946019A00F055F9CB
:1002500010EB08006141002487EA115284EAE77339
:100260001A4340D0009A62B3019A012A4FEA07521A
:1002700015DC001B61EB02014FF0004202EA07525D
:10028000CDE90042001C41F5801132462B4600F0BA
:100290008CF903B0BDE8F08F40462146F9E7001B1A
:1002A00061EB0201001C41F5801300185B4120182E
:1002B000A2F5001747EB030140EAD570B6196D416E
:1002C00011E06D084FEA360645EAC0754FEA07525D
:1002D000001B61EB0201001C41F5801149084FEA47
:1002E00030000019514132462B4603B0BDE8F04FB3
:1002F00000F04CB90098012240000023D0EB02022C
:1003000063EBE073009821464FEAE074B8EB00001D
:1003100061EB0401E9E783F000435BE781F0004112
:1003200058E72DE9FE4F81EA030404F0004421F070
:10033000004100944FF0000B23F0004350EA010409
:100340005ED052EA03045BD0C3F30A54C1F30A55EA
:100350002C44A4F2F3340194A0FB0254C1F3130122
:1003600041F48011C3F3130343F4801301FB0244EF
:1003700000FB034E840A970A44EA815447EA8357F4
:10038000A4FB076802958D0A05FB07854FEA932CAD
:1003900004FB0C542705029D4FEA065847EA16371E
:1003A000B5EB08056EEB070C870E920E47EA811736
:1003B00042EA8312A7FB0201B6EB0B0164EB0004D7
:1003C0002B0D43EA0C335E1844EB1C50DA465146C1
:1003D000E7FB0201C5F313044FEA0B3343EA14535E
:1003E0004FEA0432019C43EA0603A4F10C04029490
:1003F000009CCDE900B400F0D8F803B0BDE8F08F60
:1004000000200146F9E796230022114600F090B83B
:100410000EB540F2334102910021CDE900110A46A8
:100420000B4600F0C2F803B000BD20F00040C10D43
:10043000C0F3160040F400007F2901DA0020704765
:10044000962903DCC1F19601C8407047963988406F
:100450007047C1F30A5210B5C1F3130140F2FF33E4
:1004600041F480119A4201DA002010BD40F233437A
:100470009A42A2F2334203DC524200F02EF810BD41
:10048000904010BD01F0004330B421F0004150EA2B
:10049000010206D00A0DA2F56072C1F31301002A11
:1004A00002DC30BC00207047440F44EAC104C100A4
:1004B000E01830BC00EBC25000F031B8202A04DB59
:1004C000203A00FA02F1002070479140C2F1200367
:1004D00020FA03F3194390407047202A04DB203AA6
:1004E00021FA02F00021704721FA02F3D040C2F154
:1004F00020029140084319467047202A06DBCB179B
:10050000203A41FA02F043EAE07306E041FA02F3CE
:10051000D040C2F12002914008431946704700299B
:10052000A8BF7047401C490008BF20F00100704779
:1005300010B4B0FA80FC00FA0CF050EA010404BFD9
:1005400010BC704749B1CCF1200421FA04F411FA2F
:100550000CF118BF012121430843A3EB0C01CB1D73
:100560004FEA00614FEA102042BF002010BC7047E4
:1005700000EBC35010440029A4BF10BC7047401CBE
:10058000490008BF20F0010010BC704710B5141ED0
:1005900073F1000408DA401C41F1000192185B413C
:1005A0001A4301D120F0010010BD2DE9F04D924613
:1005B0009B4611B1B1FA81F202E0B0FA80F220322A
:1005C0009046FFF77BFF04460F4640EA0A0041EAE7
:1005D0000B0153465A46084313D0114653EA010013
:1005E00019D0C8F140025046FFF777FF05460E4686
:1005F000504659464246FFF761FF084305D00120A7
:1006000004E020463946BDE8F08D0020054346EA67
:10061000E0762C4337430A986305E40AA0EB080010
:100620000022FD0A44EA47540A3002D50020014660
:10063000E9E7010510196941DDE90845001969413B
:10064000BDE8F04DA2E70000064C074D06E0E0686B
:1006500040F0010394E8070098471034AC42F6D309
:10066000FFF748FD881F0008A81F000821B1826815
:1006700042F00102826003E0826822F0010282609F
:100680007047000010B504461248844208D1012189
:10069000401500F0D9FD0021601500F0D5FD17E0F0
:1006A0000D48844208D10121001500F0CDFD002144
:1006B000201500F0C9FD0BE00848844208D1012153
:1006C000C80300F0C1FD00214FF4004000F0BCFD64
:1006D00010BD00000024014000280140003C014002
:1006E000014600208A6802F004020AB1012000E0FD
:1006F000002070470146C86C80B270470246002057
:1007000013680B400BB1012000E000207047014648
:1007100000208A6802F008020AB1012000E00020EF
:100720007047000030B502460020002350680F4C8F
:1007300020400D790C6844EA0524204350609068FD
:100740000B4C2040D1E902542C434D7944EA450436
:1007500020439060D06A20F470000C7C641EE4B2E8
:10076000234340EA0350D06230BD0000FFFEF0FF9B
:10077000FDF7F1FFF0B504460D4600200021092DDC
:1007800011DDE068A5F10A0606EB4607072606FA22
:1007900007F18843A5F10A0606EB460603FA06F1BF
:1007A0000843E0600CE0206905EB4507072606FAE0
:1007B00007F1884305EB450603FA06F1084320617B
:1007C000072A0FDA606B561E06EB86071F2606FA0D
:1007D00007F18843561E06EB860605FA06F1084324
:1007E000606322E00D2A0FDA206BD61F06EB860726
:1007F0001F2606FA07F18843D61F06EB860605FA80
:1008000006F10843206310E0E06AA2F10D0606EB52
:1008100086071F2606FA07F18843A2F10D0606EBAC
:10082000860605FA06F10843E062F0BD816841F0F2
:1008300008018160704721B1826842F4A0028260A1
:1008400003E0826822F4A00282607047816841F070
:10085000040181607047000000B587B001214FF4AA
:10086000017000F0E1FC4FF4004000F0D1FC0120E9
:10087000ADF8040000208DF8070001A9214800F020
:10088000A5F94FF40060ADF8040010208DF80700C2
:1008900003208DF8060001A91B4800F097F94FF4DA
:1008A0000061194800F01FFA1848FFF7EBFE00201E
:1008B00002908DF80C008DF80D004FF4602004902C
:1008C0000020059001208DF8180002A90F48FFF7BD
:1008D00029FF01210D48FFF7C9FE0C48FFF7A6FFCD
:1008E00000BF0A48FFF713FF0028FAD10748FFF7B7
:1008F000ADFF00BF0548FFF7F3FE0028FAD107B0AF
:1009000000BD000000080140000C0140002401402F
:1009100000BFFEE710B5002400F024F804E0601CDE
:10092000C4B2012000F0F6FF0D48006808B1642C45
:10093000F5DB642C01DB012010BD002404E0601C09
:10094000C4B2012000F0E6FF0548006808B9642C35
:10095000F5DB642C01DB0120EEE70020ECE7000072
:100960003801224208B54FF48040ADF80000032062
:100970008DF8020048208DF803006946014800F018
:1009800025F908BD0010014008B54FF48040ADF8CE
:10099000000003208DF8020010208DF80300694646
:1009A000014800F013F908BD0010014008B501210D
:1009B000102000F039FC4FF48040ADF8000010200A
:1009C0008DF8030003208DF802006946064800F008
:1009D000FDF84FF48041044800F085F900F068F814
:1009E000FFF798FF08BD00000010014010B500247B
:1009F00004E0601CC4B2012000F08CFF0D480068C8
:100A000008B1642CF5DB002404E0601CC4B20120B2
:100A100000F080FF0748006808B9642CF5DB282047
:100A200000F078FF0348006808B1012010BD0020E5
:100A3000FCE700003801224270B50024002506E0E2
:100A40006006040EFFF7D2FF0443681CC5B2082DF0
:100A5000F6DB204670BD7CB505460E4600F028F852
:100A6000FFF758FFF8B9002405E0FFF7E5FF0DF8A0
:100A70000400601CC4B2052CF7DB9DF800009DF853
:100A8000011008449DF8021008449DF80310084422
:100A90009DF80410884208D19DF8000030709DF840
:100AA0000200287001E001207CBD0020FCE700006E
:100AB00010B5FFF769FF002006490860142000F018
:100AC00003FF01200449C1F8B8011E2000F022FFF5
:100AD00010BD0000B801224200002242704710B54C
:100AE000044606E0207800F0BBFD052000F012FF70
:100AF000641C20780028F5D1052000F00BFF0D20A4
:100B000000F0AEFD052000F005FF0A2000F0A8FD72
:100B100010BD000010B515A0FFF7E1FF4FF4FA700B
:100B200000F0D2FE14A0FFF7DAFF4FF4FA7000F0E5
:100B3000CBFE13A0FFF7D3FF4FF4FA7000F0C4FE12
:100B400017A0FFF7CCFF4FF4FA7000F0BDFE17A01E
:100B5000FFF7C5FF4FF4FA7000F0B6FE18A0FFF7DC
:100B6000BEFF4FF4FA7000F0AFFE10BD41542B43AE
:100B7000574D4F44453D320041542B5253540000D1
:100B800041542B43575341503D2277696669222CCB
:100B9000223132333435363738222C31312C34007F
:100BA00041542B4349504D55583D310041542B433E
:100BB00049505345525645523D312C353030300066
:100BC00041542B43495053544F3D30002DE9F041DF
:100BD000024600250026002000230024002791F86B
:100BE00003C00CF00F0591F803C00CF0100CBCF121
:100BF000000F03D091F802C04CEA050591F800C03F
:100C0000BCF1000F31D0146800202BE04FF0010C34
:100C10000CFA00F3B1F800C00CEA03069E4220D1A2
:100C200083004FF00F0C0CFA03F7BC4305FA03FCEA
:100C30004CEA040491F803C0BCF1280F06D14FF030
:100C4000010C0CFA00FCC2F814C00AE091F803C0D1
:100C5000BCF1480F05D14FF0010C0CFA00FCC2F8B2
:100C600010C0401C0828D1D31460B1F800C0BCF1FA
:100C7000FF0F34DD546800202EE000F1080C4FF027
:100C8000010808FA0CF3B1F800C00CEA03069E4212
:100C900021D183004FF00F0C0CFA03F7BC4305FA87
:100CA00003FC4CEA040491F803C0BCF1280F05D101
:100CB00000F1080C08FA0CF8C2F8148091F803C08F
:100CC000BCF1480F07D100F1080C4FF0010808FAF9
:100CD0000CF8C2F81080401C0828CED35460BDE840
:100CE000F081416170470161704700002DE9F047D4
:100CF0004FF400611548FFF7F4FF4FF48C7000F0DB
:100D000009FE002000F02CF88246282000F002FEA8
:100D10004FF400610D48FFF7E6FF42F2D05000F0BB
:100D2000F9FD5046FFF774FB8046094A094BFFF76F
:100D3000F8FA0646084A094BFFF7EDFA04460D4655
:100D400020462946FFF79EFBBDE8F087000C0140D6
:100D5000C3F5285C8FC2C53F9A9999999999B93F73
:100D600010B504460723002221460948FFF702FD7B
:100D700001210748FFF75FFD00BF02210448FFF78C
:100D8000BDFC0028F9D00248FFF7B4FC10BD0000FC
:100D9000002401402DE9F04704460025002612E01A
:100DA000FFF7A4FF80462846FFF72DFB814641460A
:100DB000FFF7B8F90746FFF738FB05460A2000F0B1
:100DC00083FD701CC6B2A642EADBB5FBF4F080B22C
:100DD000BDE8F08700BFFEE708B50121102000F054
:100DE00023FA4FF40050ADF8000014208DF80300F2
:100DF00003208DF8020069460448FFF7E7FE4FF430
:100E000000510248FFF76FFF08BD000000100140CD
:100E100008B50121042000F007FA0220ADF8000017
:100E200048208DF8030069460B48FFF7CFFE0420E9
:100E3000ADF8000048208DF8030069460648FFF72A
:100E4000C5FE0820ADF8000048208DF80300694673
:100E50000148FFF7BBFE08BD0008014010B504467D
:100E600004F0010028B14FF480712048FFF73BFFE8
:100E700004E04FF480711D48FFF733FF04F00200D7
:100E800020B120211948FFF72EFF03E02021174849
:100E9000FFF727FF04F0040020B140211348FFF7BB
:100EA00022FF03E040211148FFF71BFF04F0080078
:100EB00020B180210D48FFF716FF03E080210B4889
:100EC000FFF70FFF4FF480410848FFF70CFF4FF486
:100ED000FA6000F0CDFC4FF480410448FFF701FFB9
:100EE0004FF4FA6000F0C4FC10BD0000000C01409B
:100EF00008B50121082000F097F947F2E010ADF89D
:100F0000000003208DF8020010208DF803006946D0
:100F10002548FFF75BFE4FF400512348FFF7E1FE41
:100F200043F6982000F0A4FC4FF480511E48FFF7D0
:100F3000D8FE0320FFF792FF43F6982000F098FCBC
:100F40000320FFF78BFF43F6982000F091FC03206D
:100F5000FFF784FF0220FFF781FF282000F026F82A
:100F600044F6206000F084FC082000F01FF844F6EE
:100F7000206000F07DFC012000F018F844F62060AD
:100F800000F076FC062000F011F844F6206000F036
:100F90006FFC0C2000F00AF844F6206000F068FCBA
:100FA000012000F003F808BD000C014010B5044614
:100FB0004FF480510648FFF794FE2011FFF74EFFD3
:100FC0002046FFF74BFF42F2107000F051FC10BDBD
:100FD000000C014010B504464FF480510648FFF75D
:100FE00082FE2011FFF73AFF2046FFF737FF42F25B
:100FF000107000F03DFC10BD000C0140F8B5074634
:101000000D46164600200090012F02D0022F0CD171
:1010100005E005F18001C8B2FFF7C8FF06E005F161
:10102000C001C8B2FFF7C2FF00E000BF00BF02244A
:101030000DE00A20B6FBF0F100FB11603030611EBC
:101040000DF801000A20B6FBF0F6601EC4B2002CB9
:10105000EFDC684600F03CFFF8BDF8B507460D46EA
:10106000164600200090012F02D0022F0CD105E07F
:1010700005F18001C8B2FFF799FF06E005F1C00154
:10108000C8B2FFF793FF00E000BF00BF03240DE0EC
:101090000A20B6FBF0F100FB11603030611E0DF844
:1010A00001000A20B6FBF0F6601EC4B2002CEFDC93
:1010B000684600F00DFFF8BD2DE9FC4107460D46DE
:1010C0001646002000900190012F02D0022F0CD173
:1010D00005E005F18001C8B2FFF768FF06E005F101
:1010E000C001C8B2FFF762FF00E000BF00BF0524E7
:1010F0000DE00A20B6FBF0F100FB11603030611EFC
:101100000DF801000A20B6FBF0F6601EC4B2002CF8
:10111000EFDC9DF80000FFF75DFF2E20FFF75AFF80
:101120009DF80100FFF756FF9DF80200FFF752FF00
:101130009DF80300FFF74EFF9DF80400FFF74AFFFC
:1011400002A000F0C5FEBDE8FC8100006D672F6DB8
:101150003300000070B506460D461446012E02D03D
:10116000022E0CD105E005F18001C8B2FFF71EFF89
:1011700006E005F1C001C8B2FFF718FF00E000BFAC
:1011800000BF03E014F8010BFFF724FF20780028CC
:10119000F8D170BD00BFFEE77047000070B50021B8
:1011A00000230F22C47804B3154C246804F4E064CF
:1011B000C4F5E064210AC1F10403CA40447804FA8A
:1011C00003F184781440214309010E4C0678A1559F
:1011D000047804F01F050124AC4005786D11AD00C2
:1011E00005F1E025C5F8004109E0047804F01F0589
:1011F0000124AC40044D0678761145F8264070BDB8
:101200000CED00E000E400E080E100E07047000049
:1012100001460020034A506820F4404008435060D3
:10122000704700000010024029B1064A926902434B
:10123000044B9A6104E0034A92698243014B9A612C
:10124000704700000010024029B1064AD2680243EC
:10125000044BDA6004E0034AD2688243014BDA604F
:10126000704700000010024030B500210022002429
:1012700000232D4D6D6805F00C0121B1042905D026
:10128000082923D105E0294D056022E0274D05609E
:101290001FE0254D6D6805F47012234D6D6805F44F
:1012A0008034022505EB92421CB9214D554305605F
:1012B0000BE01D4D6D6805F400351DB11C4D554307
:1012C000056002E0194D5543056002E0174D0560C9
:1012D00000BF00BF144D6D6805F0F0010909154D00
:1012E0006B5C0568DD4045600F4D6D6805F4E0619D
:1012F000090A104D6B5C4568DD4085600A4D6D68DC
:1013000005F46051C90A0B4D6B5C4568DD40C56052
:10131000054D6D6805F44041890B074D6B5CC56850
:10132000B5FBF3F5056130BD0010024000127A00F4
:1013300000093D007B0000208B000020704710B5A5
:1013400000F002F810BD00000CB5002001900090E4
:101350003348006840F480303149086000BF3048AD
:10136000006800F4003000900198401C0190009843
:1013700018B90198B0F5A06FF1D12948006800F4C0
:10138000003010B10120009001E000200090009892
:10139000012843D12348006840F01000214908602B
:1013A0000846006820F0030008600846006840F026
:1013B000020008601A4840681949486008464068B9
:1013C00048600846406840F48060486008464068CD
:1013D00020F47C1048600846406840F4E8104860FB
:1013E0000846006840F08070086000BF0C48006844
:1013F00000F000700028F9D00948406820F0030090
:10140000074948600846406840F00200486000BF55
:101410000348406800F00C000828F9D10CBD00001A
:101420000010024000200240042808D14FF0E021C3
:10143000096941F004014FF0E022116107E04FF02B
:10144000E021096921F004014FF0E02211617047A9
:101450007047000010B51348006840F001001149C2
:10146000086008464068104908400E494860084630
:1014700000680E4908400B4908600846006820F4DF
:10148000802008600846406820F4FE0048604FF461
:101490001F008860FFF753FF4FF0006004490860A9
:1014A00010BD0000001002400000FFF8FFFFF6FE34
:1014B00008ED00E02DE9F04140F22551624800F0CE
:1014C00001F900287ED0604800F0B8F95F49604A11
:1014D000127888545E480078092813D2DFE800F0BB
:1014E0000513212F3C404452600058485849097860
:1014F000405CFF2803D101205549087002E000201C
:10150000534908708BE0514851490978405C1728CD
:1015100003D102204E49087002E000204C490870B7
:101520007DE04A484A490978405C042803D10320F9
:101530004749087002E00020454908706FE04348C1
:1015400043490978405C18B904204149087002E019
:1015500000203F49087062E005203D4908705EE0C8
:1015600006203B4908705AE0384839490978405C00
:10157000132803D107203649087002E000203449BF
:1015800008704CE0314832490978405C882803D122
:1015900008202F49087002E000202D4908703EE025
:1015A0002A492B4A1278895C284A52781144274AE2
:1015B00092781144254AD2781144244A1279114470
:1015C000224A00E02CE052791144204A92791144D9
:1015D0001E4AD2798818C11700EB11610912A0EBDD
:1015E0000121C1B919484179007901EB002019495D
:1015F000086008460068FEF70BFF0646164A174BC0
:10160000FEF78FFE0446FEF724FF12490860002013
:101610000F49087002E000200D49087000BF00BFAC
:101620000821094800F041F8012806D1064800F0D9
:1016300005F90821044800F023F840F2255102483A
:1016400000F01EF8BDE8F08100380140580100208C
:10165000740000207000002064027E8D24C92A409E
:1016600010B504462146054800F0EDF800BF4021C2
:10167000024800F01AF80128F9D110BD00380140E5
:1016800001F40072B2F5007F00D100BFCA430280AE
:10169000704721B1828942F40052828104E082893C
:1016A0004DF6FF731A408281704702460020B1F563
:1016B000007F00D100BF13880B400BB1012000E078
:1016C0000020704770B5024600240023002500204A
:1016D00040F66A16B14200D100BFC1F3421501F0D5
:1016E0001F03012606FA03F3012D02D19689334028
:1016F00006E0022D02D1168A334001E0968A33407B
:101700000C12012606FA04F41688344013B10CB109
:10171000012000E0002070BDF0B503460024002643
:101720000025002040F66A17B94200D100BF1846D4
:10173000C1F3421401F01F06012707FA06F5012C38
:1017400001D10C3004E0022C01D1103000E0143043
:101750001AB107682F43076002E00768AF430760CC
:10176000F0BD00002DE9F04786B005460E46002486
:10177000A24600BFA1460027B08900B100BF2F4696
:101780002C8A4CF6FF700440F08804432C82AC890C
:101790004EF6F3100440B08831890843718908433C
:1017A0000443AC81AC8A4FF6FF400440B089044347
:1017B000AC8201A8FFF758FD1F48874202D1DDF82F
:1017C00010A001E0DDF80CA0A88900F4004040B1B1
:1017D0000AEBCA0000EB0A1031684900B0FBF1F8CF
:1017E00007E00AEBCA0000EB0A1031688900B0FB81
:1017F000F1F86420B8FBF0F004012009642101FB3A
:101800001089A88900F4004040B1322000EBC900E3
:10181000B0FBF1F000F00700044308E0322000EBD9
:1018200009106421B0FBF1F000F00F0004432C819B
:1018300006B0BDE8F0870000003801400146888806
:10184000C0F308007047C1F308028280704700BFF0
:10185000FEE702E008C8121F08C1002AFAD170474B
:101860007047002001E001C1121F002AFBD1704720
:1018700001B50098009000BF0098411E009100281B
:10188000FAD108BD10B56FF00400FFF7CDFD0A488E
:1018900000680A49B0FBF1F0094908700846007871
:1018A00000EB4001C1EBC0104FF6FF7101EAC00030
:1018B0000449088010BD00005000002000127A008A
:1018C00064000020660000200146114A12884A4345
:1018D0004FF0E0235A6100229A611A46126942F0E1
:1018E00001021A6100BF4FF0E022106900F001020E
:1018F0001AB100F48032002AF5D04FF0E0221269CC
:1019000022F001024FF0E0231A6100229A61704731
:10191000660000200146114A12784A434FF0E02346
:101920005A6100229A611A46126942F001021A6154
:1019300000BF4FF0E022106900F001021AB100F47C
:101940008032002AF5D04FF0E022126922F0010225
:101950004FF0E0231A6100229A6170476400002072
:10196000FFF790FFFFF7C4FAFFF752FAFFF734FAD8
:10197000FEF772FFFFF71AF84FF4165000F0B4FAB2
:101980004FF47A70FFF7A0FFFFF7C4F84FF4FA7036
:10199000FFF79AFF9EA200210120FFF7DBFB9DA22B
:1019A00005210120FFF7D6FB9BA20A210120FFF7AA
:1019B000D1FB9AA200210220FFF7CCFB4FF4FA7072
:1019C000FFF782FF22E100F059F9964800780028DD
:1019D000F8D195499548FFF73EF8944802780221DE
:1019E0000120FFF70BFB4320FFF7F4FA8E48027843
:1019F00007210120FFF702FB2520FFF7EBFA142057
:101A0000FFF7C8F98A490880084602880D2101209D
:101A1000FFF723FB9620FFF757FF86480521026852
:101A20000220FFF749FB9620FFF74EFF7F48007822
:101A300081490978884211DC7B4800787F49097820
:101A400088420BDC7A4800887D490968884205D8BD
:101A5000784800687B490968884206D97A48006856
:101A6000C0437A49C1F8B40102E001207649086018
:101A70006E4800780A2190FBF1F0754908706B48B8
:101A800000780A2190FBF1F201FB12007149087005
:101A900071486F490978405C704948716E486D49DA
:101AA0000978405C6D4988715F4800780A2190FB95
:101AB000F1F0674908705C4800780A2190FBF1F268
:101AC00001FB120063490870634861490978405C72
:101AD0006249887360485F490978405C5F49C87310
:101AE00053480088642190FBF1F059490870504830
:101AF0000088642190FBF1F201FB12000A2190FBA7
:101B0000F1F0544908704A4800880A2190FBF1F22C
:101B100001FB1200524908704F484D490978405C5A
:101B20004E4948754C484B490978405C4B4988758B
:101B300049484B490978405C4849C8753D480068A8
:101B400042F21071B0FBF1F0414908703948006869
:101B500042F21071B0FBF1F201FB12004FF47A7106
:101B6000B0FBF1F03B490870324800684FF47A71DD
:101B7000B0FBF1F201FB12006421B0FBF1F0384937
:101B800008702C4800686421B0FBF1F201FB1200E0
:101B90000A21B0FBF1F033490870264800680A2199
:101BA000B0FBF1F201FB12002F4908702A482849C6
:101BB0000978405C294988772E20C877264825492E
:101BC0000978405C254981F8200023482449097898
:101BD000405C224981F821001F4822490978405C75
:101BE0001E4981F822001C481F490978405C1B49A6
:101BF00081F823001DA0FEF772FFC820FFF764FEE6
:101C00001648FEF76CFFC820FFF75EFEDBE600001B
:101C1000543A0000483A0000504D3A004368326F91
:101C20003A00000004000020010000200000002015
:101C300002000020700000200600002007000020A5
:101C4000080000200C000020B401224200002242C3
:101C500048000020490000203B0000201000002028
:101C60004A0000204B0000204C00002041542B4330
:101C7000495053454E443D302C34320010B58C4809
:101C8000006898B900BF8A4800680028FBD08948DE
:101C90000078042805DA87480078401C85490870D8
:101CA00004E0002083490870834908708148007867
:101CB00005280ED2DFE800F003040A0B0C0009E04F
:101CC00001207D4908707D49086003E002E001E0E1
:101CD00000E000BF00BF77480078012835D1744884
:101CE000001F006898B96420FFF7EEFD7048001FE0
:101CF000006860B972480078632805DA7048007897
:101D0000401C6F49087002E000206D490870684867
:101D10000838006898B96420FFF7D6FD6448083891
:101D2000006860B966480078002805DD64480078DE
:101D3000401E6349087002E06320614908706048F2
:101D4000027802210120FFF759F95A480078022849
:101D500035D15748001F006898B96420FFF7B4FDDB
:101D60005348001F006860B956480078632805DAB8
:101D700054480078401C5349087002E00020514943
:101D800008704B480838006898B96420FFF79CFD3C
:101D900047480838006860B94A480078002805DDDF
:101DA00048480078401E4749087002E063204549D2
:101DB00008704448027807210120FFF71FF93D48C9
:101DC0000078032836D13A48001F0068A0B9642083
:101DD000FFF77AFD3648001F006868B93A48006886
:101DE000B0F5FA7F05D238480068401C36490860D3
:101DF00002E00020344908602D480838006898B98E
:101E00006420FFF761FD2A480838006860B92E4851
:101E1000006828B12C480068401E2B49086003E088
:101E20004FF4FA702849086027480D210268012004
:101E3000FFF713F91F480078042837D11C48001F0A
:101E40000068A8B96420FFF73FFD1948001F00682B
:101E500070B91E4800684CF25031884205D21B48C8
:101E60000068401C1949086002E00020174908601A
:101E70000F480838006898B96420FFF725FD0C4822
:101E80000838006860B91148006828B10F48006838
:101E9000401E0E49086003E04CF250300B490860C8
:101EA0000A48052102680220FFF706F910BD00006C
:101EB0000C0121420500002004000020B401224250
:101EC0000600002007000020080000200C00002071
:101ED00010B5044603E02078FFF77CF8641C2078F6
:101EE0000028F8D110BD000010B586B004460121CD
:101EF00044F20400FFF798F94FF40070ADF81400B5
:101F000003208DF8160018208DF8170005A91C482D
:101F1000FEF75CFE4FF48060ADF8140004208DF8ED
:101F2000170005A91648FEF751FE25208DF8000080
:101F300003208DF801008DF8020001208DF80300C8
:101F40006846FFF72BF901940020ADF80800ADF8C2
:101F50000A00ADF80C00ADF810000C20ADF80E0032
:101F600001A90848FFF7FEFB012240F22551054870
:101F7000FFF7D2FB01210348FFF78BFB06B010BD32
:101F80000008014000380140A81F000800000020A0
:101F9000900000005218000838200008900000202F
:101FA000D804000062180008000000000000265A53
:101FB00064000000401F0000CEC2B6C83A30304373
:101FC00020CAAAB6C83A30302520504D3A303030B9
:101FD000204368326F3A302E303030306D672F6DCD
:101FE000332000303132333435363738392D200044
:101FF000000000000000000000A24A0400000000F1
:1020000000000000010203040607080900000000A8
:1020100000000000000000000000000000000000C0
:102020000000000000000001020304010203040696
:0820300007080902040608007C
:0400000508000101ED
:00000001FF
